{
  "contractName": "Oracle",
  "abi": [
    {
      "inputs": [],
      "name": "interval",
      "outputs": [
        {
          "internalType": "uint256",
          "name": "",
          "type": "uint256"
        }
      ],
      "stateMutability": "view",
      "type": "function",
      "constant": true
    },
    {
      "inputs": [
        {
          "internalType": "uint256",
          "name": "i",
          "type": "uint256"
        }
      ],
      "name": "setInterval",
      "outputs": [],
      "stateMutability": "nonpayable",
      "type": "function"
    },
    {
      "inputs": [],
      "name": "getProposedValues",
      "outputs": [
        {
          "internalType": "uint256[]",
          "name": "",
          "type": "uint256[]"
        }
      ],
      "stateMutability": "view",
      "type": "function",
      "constant": true
    },
    {
      "inputs": [],
      "name": "retrieve",
      "outputs": [
        {
          "internalType": "uint256",
          "name": "",
          "type": "uint256"
        }
      ],
      "stateMutability": "nonpayable",
      "type": "function"
    },
    {
      "inputs": [
        {
          "internalType": "uint256",
          "name": "proposition",
          "type": "uint256"
        }
      ],
      "name": "provide",
      "outputs": [],
      "stateMutability": "payable",
      "type": "function",
      "payable": true
    }
  ],
  "bytecode": "0x6080604052610e1060055534801561001657600080fd5b50610ae5806100266000396000f3fe60806040526004361061004a5760003560e01c806322a900821461004f5780632e2ebe061461008a5780632e64cec1146100b8578063947a36fb146100e3578063c1f9ecfe1461010e575b600080fd5b34801561005b57600080fd5b506100886004803603602081101561007257600080fd5b810190808035906020019092919050505061017a565b005b6100b6600480360360208110156100a057600080fd5b8101908080359060200190929190505050610184565b005b3480156100c457600080fd5b506100cd61032f565b6040518082815260200191505060405180910390f35b3480156100ef57600080fd5b506100f861034f565b6040518082815260200191505060405180910390f35b34801561011a57600080fd5b50610123610355565b6040518080602001828103825283818151815260200191508051906020019060200280838360005b8381101561016657808201518184015260208101905061014b565b505050509050019250505060405180910390f35b8060058190555050565b600080600090505b60048054905081101561021a573373ffffffffffffffffffffffffffffffffffffffff16600482815481106101bd57fe5b9060005260206000200160009054906101000a900473ffffffffffffffffffffffffffffffffffffffff1673ffffffffffffffffffffffffffffffffffffffff16141561020d576001915061021a565b808060010191505061018c565b50801561028f576040517f08c379a00000000000000000000000000000000000000000000000000000000081526004018080602001828103825260108152602001807f43616e6e6f74206269642074776963650000000000000000000000000000000081525060200191505060405180910390fd5b6004339080600181540180825580915050600190039060005260206000200160009091909190916101000a81548173ffffffffffffffffffffffffffffffffffffffff021916908373ffffffffffffffffffffffffffffffffffffffff1602179055506002829080600181540180825580915050600190039060005260206000200160009091909190915055346003600082825401925050819055505050565b60006103396103ad565b15610347576103466103ce565b5b600054905090565b60055481565b606060028054806020026020016040519081016040528092919081815260200182805480156103a357602002820191906000526020600020905b81548152602001906001019080831161038f575b5050505050905090565b600060055460015442031180156103c95750600a600280549050115b905090565b6060806103dd6002600461049b565b915091506000806004600280549050816103f357fe5b0460046003600280549050028161040657fe5b049150915060608061041a8686868661066d565b91509150610427826107c1565b6000819055506004600061043b9190610a50565b600260006104499190610a71565b4260018190555060005b81518110156104925761048582828151811061046b57fe5b602002602001015183516003548161047f57fe5b0461080d565b8080600101915050610453565b50505050505050565b606080610586848054806020026020016040519081016040528092919081815260200182805480156104ec57602002820191906000526020600020905b8154815260200190600101908083116104d8575b50505050508480548060200260200160405190810160405280929190818152602001828054801561057257602002820191906000526020600020905b8160009054906101000a900473ffffffffffffffffffffffffffffffffffffffff1673ffffffffffffffffffffffffffffffffffffffff1681526020019060010190808311610528575b50505050506000600188805490500361085c565b8383818054806020026020016040519081016040528092919081815260200182805480156105d357602002820191906000526020600020905b8154815260200190600101908083116105bf575b505050505091508080548060200260200160405190810160405280929190818152602001828054801561065b57602002820191906000526020600020905b8160009054906101000a900473ffffffffffffffffffffffffffffffffffffffff1673ffffffffffffffffffffffffffffffffffffffff1681526020019060010190808311610611575b50505050509050915091509250929050565b606080606084840367ffffffffffffffff8111801561068b57600080fd5b506040519080825280602002602001820160405280156106ba5781602001602082028036833780820191505090505b509050606085850367ffffffffffffffff811180156106d857600080fd5b506040519080825280602002602001820160405280156107075781602001602082028036833780820191505090505b50905060008690505b858110156107af5788818151811061072457fe5b6020026020010151838883038151811061073a57fe5b60200260200101818152505087818151811061075257fe5b6020026020010151828883038151811061076857fe5b602002602001019073ffffffffffffffffffffffffffffffffffffffff16908173ffffffffffffffffffffffffffffffffffffffff16815250508080600101915050610710565b50818193509350505094509492505050565b6000806000905060005b83518110156107f9578381815181106107e057fe5b60200260200101518201915080806001019150506107cb565b508251818161080457fe5b04915050919050565b8173ffffffffffffffffffffffffffffffffffffffff166108fc829081150290604051600060405180830381858888f193505050501561085857806003600082825403925050819055505b5050565b6000829050600082905080821415610875575050610a4a565b60008660028686038161088457fe5b0586018151811061089157fe5b602002602001015190505b818313610a1c575b808784815181106108b157fe5b602002602001015110156108cc5782806001019350506108a4565b5b8682815181106108d957fe5b60200260200101518110156108f6578180600190039250506108cd565b818313610a175786828151811061090957fe5b602002602001015187848151811061091d57fe5b602002602001015188858151811061093157fe5b6020026020010189858151811061094457fe5b602002602001018281525082815250505085828151811061096157fe5b602002602001015186848151811061097557fe5b602002602001015187858151811061098957fe5b6020026020010188858151811061099c57fe5b602002602001018273ffffffffffffffffffffffffffffffffffffffff1673ffffffffffffffffffffffffffffffffffffffff168152508273ffffffffffffffffffffffffffffffffffffffff1673ffffffffffffffffffffffffffffffffffffffff16815250505082806001019350508180600190039250505b61089c565b81851215610a3157610a308787878561085c565b5b83831215610a4657610a458787858761085c565b5b5050505b50505050565b5080546000825590600052602060002090810190610a6e9190610a92565b50565b5080546000825590600052602060002090810190610a8f9190610a92565b50565b5b80821115610aab576000816000905550600101610a93565b509056fea264697066735822122083229fd3fa8a90932a6b2413d64884dc71482e874fc106dfb0009e363107789564736f6c63430007040033",
  "immutableReferences": {},
  "source": "// SPDX-License-Identifier: GPL-3.0\n\npragma solidity >=0.7.0;\n\n/**\n * @title Storage\n * @dev Store & retrieve value in a variable\n */\ncontract Oracle {\n\n    uint value;\n    uint lastUpdateTimestamp;\n    uint[] propositions;\n    uint bal;\n    address[] addresses;\n    uint public interval = 3600;\n    \n    function setInterval( uint i ) external {\n        // todo: confirm sender is admin\n        interval = i;\n    }\n    \n    function getProposedValues() external view returns (uint[] memory){\n        // todo: confirm sender is admin\n        return propositions;\n    }\n    \n    function shouldUpdate() internal view returns(bool) {\n        return block.timestamp - lastUpdateTimestamp > interval && propositions.length > 10;\n    }\n\n    function update() internal {\n        // sort proposed values\n        // uint[] calldata sortedValues = new uint[](propositions.length);\n        // address[] calldata sortedAddresses = new address[] (propositions.length);\n        (uint [] memory sortedValues, address[] memory sortedAddresses) = sort(propositions, addresses);\n        \n        // discard bottom and top 25% of propositions\n        (uint left, uint right) = (propositions.length / 4, propositions.length * 3 / 4);\n        (uint[] memory trimmedValues, address[] memory trimmedAddresses) = trim(sortedValues, sortedAddresses, left, right);\n        \n        // calculate value as average of remaining propositions\n        value = average(trimmedValues);\n        \n        // reset data\n        delete addresses;\n        delete propositions;\n        lastUpdateTimestamp = block.timestamp;\n        \n        // split reward to winners\n        for (uint i = 0; i < trimmedAddresses.length; i++ ) {\n            pay(payable(trimmedAddresses[i]), bal / trimmedAddresses.length);\n        }\n    }\n\n    function retrieve() external returns (uint256){\n        if (shouldUpdate()) {\n            update();\n        }\n        return value;\n    }\n    \n    function provide(uint proposition) external payable {\n        // require(msg.value == 0.01 ether, \"Payment of 0.01 ether is required\");\n        bool alreadyProposed;\n        for (uint i = 0; i < addresses.length; i++) {\n            if (addresses[i] == msg.sender) {\n                alreadyProposed = true;\n                break;\n            }\n        }\n        require(!alreadyProposed, \"Cannot bid twice\");\n        addresses.push(msg.sender);\n        propositions.push(proposition);\n        bal += msg.value;\n    }\n    \n    function sort(uint[] storage values, address[] storage addr) internal returns(uint[] memory, address[] memory) {\n      quickSort( values, addr, int(0), int(values.length - 1) ) ;\n      return (values, addr);\n    }\n    \n    function quickSort(uint[] memory arr, address[] memory add, int left, int right) internal {\n        int i = left;\n        int j = right;\n        if(i==j) return;\n        uint pivot = arr[uint(left + (right - left) / 2)];\n        while (i <= j) {\n            while (arr[uint(i)] < pivot) i++;\n            while (pivot < arr[uint(j)]) j--;\n            if (i <= j) {\n                (arr[uint(i)], arr[uint(j)]) = (arr[uint(j)], arr[uint(i)]);\n                (add[uint(i)], add[uint(j)]) = (add[uint(j)], add[uint(i)]);\n                i++;\n                j--;\n            }\n        }\n        if (left < j)\n            quickSort(arr, add, left, j);\n        if (i < right)\n            quickSort(arr, add, i, right);\n    }\n    \n    function average(uint[] memory arr) internal pure returns (uint) {\n        uint sum = 0;\n        for (uint i = 0; i < arr.length; i++) {\n            sum += arr[i];\n        }\n        return sum / arr.length;\n    }\n    \n    function pay(address payable addr, uint amt) internal  {\n        if (addr.send(amt)) {\n            bal -= amt;\n        }\n    }\n    \n    function trim(uint[] memory arr, address[] memory add, uint left, uint right) internal pure returns(uint[] memory, address[] memory) {\n        uint[] memory arrRes = new uint[](right - left);\n        address[] memory addRes = new address[](right - left);\n        \n        for(uint i=left; i < right; i++) {\n            arrRes[i - left] = arr[i];\n            addRes[i - left] = add[i];\n        }\n        return (arrRes, addRes);\n    }\n}\n",
  "sourcePath": "/home/petros/PycharmProjects/oracle/contracts/Oracle.sol",
  "compiler": {
    "name": "solc",
    "version": "0.7.4+commit.3f05b770.Emscripten.clang"
  },
  "schemaVersion": "3.3.3",
  "updatedAt": "2021-02-04T14:52:16.547Z",
  "networkType": "ethereum",
  "devdoc": {
    "details": "Store & retrieve value in a variable",
    "kind": "dev",
    "methods": {},
    "title": "Storage",
    "version": 1
  },
  "userdoc": {
    "kind": "user",
    "methods": {},
    "version": 1
  }
}